{
  "contractName": "ChannelManager",
  "abi": [
    {
      "constant": true,
      "inputs": [
        {
          "name": "_hashedMsg",
          "type": "bytes32"
        },
        {
          "name": "_sig",
          "type": "string"
        },
        {
          "name": "_addr",
          "type": "address"
        }
      ],
      "name": "isSignedBy",
      "outputs": [
        {
          "name": "",
          "type": "bool"
        }
      ],
      "payable": false,
      "stateMutability": "pure",
      "type": "function"
    },
    {
      "constant": true,
      "inputs": [
        {
          "name": "_hexstr",
          "type": "string"
        }
      ],
      "name": "hexstrToBytes",
      "outputs": [
        {
          "name": "",
          "type": "bytes"
        }
      ],
      "payable": false,
      "stateMutability": "pure",
      "type": "function"
    },
    {
      "constant": true,
      "inputs": [
        {
          "name": "_str",
          "type": "string"
        },
        {
          "name": "_startIndex",
          "type": "uint256"
        },
        {
          "name": "_endIndex",
          "type": "uint256"
        }
      ],
      "name": "substring",
      "outputs": [
        {
          "name": "",
          "type": "string"
        }
      ],
      "payable": false,
      "stateMutability": "pure",
      "type": "function"
    },
    {
      "constant": true,
      "inputs": [
        {
          "name": "_char",
          "type": "string"
        }
      ],
      "name": "parseInt16Char",
      "outputs": [
        {
          "name": "",
          "type": "uint256"
        }
      ],
      "payable": false,
      "stateMutability": "pure",
      "type": "function"
    },
    {
      "constant": true,
      "inputs": [
        {
          "name": "",
          "type": "bytes32"
        }
      ],
      "name": "channels",
      "outputs": [
        {
          "name": "agentA",
          "type": "address"
        },
        {
          "name": "agentB",
          "type": "address"
        },
        {
          "name": "depositA",
          "type": "uint256"
        },
        {
          "name": "depositB",
          "type": "uint256"
        },
        {
          "name": "status",
          "type": "uint8"
        },
        {
          "name": "challenge",
          "type": "uint256"
        },
        {
          "name": "nonce",
          "type": "uint256"
        },
        {
          "name": "closeTime",
          "type": "uint256"
        },
        {
          "name": "balanceA",
          "type": "uint256"
        },
        {
          "name": "balanceB",
          "type": "uint256"
        }
      ],
      "payable": false,
      "stateMutability": "view",
      "type": "function"
    },
    {
      "constant": true,
      "inputs": [
        {
          "name": "_uint",
          "type": "uint256"
        }
      ],
      "name": "uintToBytes32",
      "outputs": [
        {
          "name": "b",
          "type": "bytes"
        }
      ],
      "payable": false,
      "stateMutability": "pure",
      "type": "function"
    },
    {
      "constant": true,
      "inputs": [
        {
          "name": "",
          "type": "address"
        },
        {
          "name": "",
          "type": "address"
        }
      ],
      "name": "activeIds",
      "outputs": [
        {
          "name": "",
          "type": "bytes32"
        }
      ],
      "payable": false,
      "stateMutability": "view",
      "type": "function"
    },
    {
      "constant": true,
      "inputs": [
        {
          "name": "_msg",
          "type": "string"
        }
      ],
      "name": "toEthereumSignedMessage",
      "outputs": [
        {
          "name": "",
          "type": "bytes32"
        }
      ],
      "payable": false,
      "stateMutability": "pure",
      "type": "function"
    },
    {
      "constant": true,
      "inputs": [
        {
          "name": "_hashedMsg",
          "type": "bytes32"
        },
        {
          "name": "_sig",
          "type": "string"
        }
      ],
      "name": "recoverSigner",
      "outputs": [
        {
          "name": "",
          "type": "address"
        }
      ],
      "payable": false,
      "stateMutability": "pure",
      "type": "function"
    },
    {
      "constant": true,
      "inputs": [
        {
          "name": "_uint",
          "type": "uint256"
        }
      ],
      "name": "uintToString",
      "outputs": [
        {
          "name": "str",
          "type": "string"
        }
      ],
      "payable": false,
      "stateMutability": "pure",
      "type": "function"
    },
    {
      "anonymous": false,
      "inputs": [
        {
          "indexed": true,
          "name": "channelId",
          "type": "bytes32"
        },
        {
          "indexed": true,
          "name": "agentA",
          "type": "address"
        },
        {
          "indexed": true,
          "name": "agentB",
          "type": "address"
        },
        {
          "indexed": false,
          "name": "depositA",
          "type": "uint256"
        }
      ],
      "name": "ChannelOpen",
      "type": "event"
    },
    {
      "anonymous": false,
      "inputs": [
        {
          "indexed": true,
          "name": "channelId",
          "type": "bytes32"
        },
        {
          "indexed": true,
          "name": "agentA",
          "type": "address"
        },
        {
          "indexed": true,
          "name": "agentB",
          "type": "address"
        },
        {
          "indexed": false,
          "name": "depositA",
          "type": "uint256"
        },
        {
          "indexed": false,
          "name": "depositB",
          "type": "uint256"
        }
      ],
      "name": "ChannelJoin",
      "type": "event"
    },
    {
      "anonymous": false,
      "inputs": [
        {
          "indexed": true,
          "name": "channelId",
          "type": "bytes32"
        },
        {
          "indexed": false,
          "name": "nonce",
          "type": "uint256"
        }
      ],
      "name": "ChannelChallenge",
      "type": "event"
    },
    {
      "anonymous": false,
      "inputs": [
        {
          "indexed": true,
          "name": "channelId",
          "type": "bytes32"
        }
      ],
      "name": "ChannelClose",
      "type": "event"
    },
    {
      "constant": false,
      "inputs": [
        {
          "name": "to",
          "type": "address"
        },
        {
          "name": "challenge",
          "type": "uint256"
        }
      ],
      "name": "openChannel",
      "outputs": [],
      "payable": true,
      "stateMutability": "payable",
      "type": "function"
    },
    {
      "constant": false,
      "inputs": [
        {
          "name": "id",
          "type": "bytes32"
        }
      ],
      "name": "joinChannel",
      "outputs": [],
      "payable": true,
      "stateMutability": "payable",
      "type": "function"
    },
    {
      "constant": true,
      "inputs": [
        {
          "name": "channelId",
          "type": "bytes32"
        },
        {
          "name": "nonce",
          "type": "uint256"
        },
        {
          "name": "balanceA",
          "type": "uint256"
        },
        {
          "name": "balanceB",
          "type": "uint256"
        },
        {
          "name": "sigA",
          "type": "string"
        },
        {
          "name": "sigB",
          "type": "string"
        }
      ],
      "name": "isValidStateUpdate",
      "outputs": [
        {
          "name": "",
          "type": "bool"
        }
      ],
      "payable": false,
      "stateMutability": "view",
      "type": "function"
    },
    {
      "constant": false,
      "inputs": [
        {
          "name": "channelId",
          "type": "bytes32"
        },
        {
          "name": "nonce",
          "type": "uint256"
        },
        {
          "name": "balanceA",
          "type": "uint256"
        },
        {
          "name": "balanceB",
          "type": "uint256"
        },
        {
          "name": "sigA",
          "type": "string"
        },
        {
          "name": "sigB",
          "type": "string"
        }
      ],
      "name": "updateState",
      "outputs": [],
      "payable": false,
      "stateMutability": "nonpayable",
      "type": "function"
    },
    {
      "constant": false,
      "inputs": [
        {
          "name": "channelId",
          "type": "bytes32"
        },
        {
          "name": "nonce",
          "type": "uint256"
        },
        {
          "name": "balanceA",
          "type": "uint256"
        },
        {
          "name": "balanceB",
          "type": "uint256"
        },
        {
          "name": "sigA",
          "type": "string"
        },
        {
          "name": "sigB",
          "type": "string"
        }
      ],
      "name": "startChallenge",
      "outputs": [],
      "payable": false,
      "stateMutability": "nonpayable",
      "type": "function"
    },
    {
      "constant": false,
      "inputs": [
        {
          "name": "channelId",
          "type": "bytes32"
        }
      ],
      "name": "closeChannel",
      "outputs": [],
      "payable": false,
      "stateMutability": "nonpayable",
      "type": "function"
    },
    {
      "constant": true,
      "inputs": [
        {
          "name": "id",
          "type": "bytes32"
        }
      ],
      "name": "getChannel",
      "outputs": [
        {
          "name": "",
          "type": "address"
        },
        {
          "name": "",
          "type": "address"
        },
        {
          "name": "",
          "type": "uint256"
        },
        {
          "name": "",
          "type": "uint256"
        },
        {
          "name": "",
          "type": "uint256"
        },
        {
          "name": "",
          "type": "uint256"
        },
        {
          "name": "",
          "type": "uint256"
        },
        {
          "name": "",
          "type": "uint256"
        },
        {
          "name": "",
          "type": "uint256"
        },
        {
          "name": "",
          "type": "uint256"
        }
      ],
      "payable": false,
      "stateMutability": "view",
      "type": "function"
    }
  ],
  "bytecode": "0x6060604052341561000f57600080fd5b6129818061001e6000396000f3006060604052600436106100f1576000357c0100000000000000000000000000000000000000000000000000000000900463ffffffff1680631052506f146100f65780631445f713146101975780631dcd9b551461026d57806324f453d11461035557806338b025b21461038c5780634c2ee09d146103fd5780637a7ebd7b14610424578063831c2b8214610504578063886d3db9146105d6578063b6f5a74614610672578063b7453cc51461068e578063c133eb9214610756578063dae21454146107ca578063dca9541914610843578063e7c54111146108ed578063e8990cf5146109cd578063e939567914610a95575b600080fd5b341561010157600080fd5b61017d60048080356000191690602001909190803590602001908201803590602001908080601f0160208091040260200160405190810160405280939291908181526020018383808284378201915050505050509190803573ffffffffffffffffffffffffffffffffffffffff16906020019091905050610b31565b604051808215151515815260200191505060405180910390f35b34156101a257600080fd5b6101f2600480803590602001908201803590602001908080601f01602080910402602001604051908101604052809392919081815260200183838082843782019150505050505091905050610b99565b6040518080602001828103825283818151815260200191508051906020019080838360005b83811015610232578082015181840152602081019050610217565b50505050905090810190601f16801561025f5780820380516001836020036101000a031916815260200191505b509250505060405180910390f35b341561027857600080fd5b6102da600480803590602001908201803590602001908080601f01602080910402602001604051908101604052809392919081815260200183838082843782019150505050505091908035906020019091908035906020019091905050610d1c565b6040518080602001828103825283818151815260200191508051906020019080838360005b8381101561031a5780820151818401526020810190506102ff565b50505050905090810190601f1680156103475780820380516001836020036101000a031916815260200191505b509250505060405180910390f35b61038a600480803573ffffffffffffffffffffffffffffffffffffffff16906020019091908035906020019091905050610e4e565b005b341561039757600080fd5b6103e7600480803590602001908201803590602001908080601f016020809104026020016040519081016040528093929190818152602001838380828437820191505050505050919050506111cb565b6040518082815260200191505060405180910390f35b341561040857600080fd5b61042260048080356000191690602001909190505061176b565b005b341561042f57600080fd5b610449600480803560001916906020019091905050611b74565b604051808b73ffffffffffffffffffffffffffffffffffffffff1673ffffffffffffffffffffffffffffffffffffffff1681526020018a73ffffffffffffffffffffffffffffffffffffffff1673ffffffffffffffffffffffffffffffffffffffff1681526020018981526020018881526020018760028111156104c957fe5b60ff1681526020018681526020018581526020018481526020018381526020018281526020019a505050505050505050505060405180910390f35b341561050f57600080fd5b610529600480803560001916906020019091905050611c15565b604051808b73ffffffffffffffffffffffffffffffffffffffff1673ffffffffffffffffffffffffffffffffffffffff1681526020018a73ffffffffffffffffffffffffffffffffffffffff1673ffffffffffffffffffffffffffffffffffffffff1681526020018981526020018881526020018781526020018681526020018581526020018481526020018381526020018281526020019a505050505050505050505060405180910390f35b34156105e157600080fd5b6105f76004808035906020019091905050611dd5565b6040518080602001828103825283818151815260200191508051906020019080838360005b8381101561063757808201518184015260208101905061061c565b50505050905090810190601f1680156106645780820380516001836020036101000a031916815260200191505b509250505060405180910390f35b61068c600480803560001916906020019091905050611e0e565b005b341561069957600080fd5b61075460048080356000191690602001909190803590602001909190803590602001909190803590602001909190803590602001908201803590602001908080601f0160208091040260200160405190810160405280939291908181526020018383808284378201915050505050509190803590602001908201803590602001908080601f01602080910402602001604051908101604052809392919081815260200183838082843782019150505050505091905050611faf565b005b341561076157600080fd5b6107ac600480803573ffffffffffffffffffffffffffffffffffffffff1690602001909190803573ffffffffffffffffffffffffffffffffffffffff16906020019091905050612111565b60405180826000191660001916815260200191505060405180910390f35b34156107d557600080fd5b610825600480803590602001908201803590602001908080601f01602080910402602001604051908101604052809392919081815260200183838082843782019150505050505091905050612136565b60405180826000191660001916815260200191505060405180910390f35b341561084e57600080fd5b6108ab60048080356000191690602001909190803590602001908201803590602001908080601f016020809104026020016040519081016040528093929190818152602001838380828437820191505050505050919050506122aa565b604051808273ffffffffffffffffffffffffffffffffffffffff1673ffffffffffffffffffffffffffffffffffffffff16815260200191505060405180910390f35b34156108f857600080fd5b6109b360048080356000191690602001909190803590602001909190803590602001909190803590602001909190803590602001908201803590602001908080601f0160208091040260200160405190810160405280939291908181526020018383808284378201915050505050509190803590602001908201803590602001908080601f01602080910402602001604051908101604052809392919081815260200183838082843782019150505050505091905050612495565b604051808215151515815260200191505060405180910390f35b34156109d857600080fd5b610a9360048080356000191690602001909190803590602001909190803590602001909190803590602001909190803590602001908201803590602001908080601f0160208091040260200160405190810160405280939291908181526020018383808284378201915050505050509190803590602001908201803590602001908080601f016020809104026020016040519081016040528093929190818152602001838380828437820191505050505050919050506126e4565b005b3415610aa057600080fd5b610ab6600480803590602001909190505061278a565b6040518080602001828103825283818151815260200191508051906020019080838360005b83811015610af6578082015181840152602081019050610adb565b50505050905090810190601f168015610b235780820380516001836020036101000a031916815260200191505b509250505060405180910390f35b6000808273ffffffffffffffffffffffffffffffffffffffff1614151515610b5857600080fd5b610b6284846122aa565b73ffffffffffffffffffffffffffffffffffffffff168273ffffffffffffffffffffffffffffffffffffffff161490509392505050565b610ba16128a2565b6000610bab6128a2565b6000610bb56128b6565b610bbd6128b6565b600080885196506000600288811515610bd257fe5b06141515610bdf57600080fd5b600287811515610beb57fe5b04604051805910610bf95750595b9080825280601f01601f1916602001820160405250955060009450600091505b86821015610d0d57610c2f898360018501610d1c565b9350610c42896001840160028501610d1c565b9250610c4d836111cb565b6010610c58866111cb565b02019050610c6581611dd5565b601f815181101515610c7357fe5b9060200101517f010000000000000000000000000000000000000000000000000000000000000090047f0100000000000000000000000000000000000000000000000000000000000000028686806001019750815181101515610cd257fe5b9060200101907effffffffffffffffffffffffffffffffffffffffffffffffffffffffffffff1916908160001a905350600282019150610c19565b85975050505050505050919050565b610d246128b6565b610d2c6128a2565b610d346128a2565b6000869250848611151515610d4857600080fd5b60008610151515610d5857600080fd5b82518511151515610d6857600080fd5b858503604051805910610d785750595b9080825280601f01601f191660200182016040525091508590505b84811015610e41578281815181101515610da957fe5b9060200101517f010000000000000000000000000000000000000000000000000000000000000090047f01000000000000000000000000000000000000000000000000000000000000000282878303815181101515610e0457fe5b9060200101907effffffffffffffffffffffffffffffffffffffffffffffffffffffffffffff1916908160001a9053508080600101915050610d93565b8193505050509392505050565b6000610e586128ca565b60008314151515610e6857600080fd5b338442604051808473ffffffffffffffffffffffffffffffffffffffff1673ffffffffffffffffffffffffffffffffffffffff166c010000000000000000000000000281526014018373ffffffffffffffffffffffffffffffffffffffff1673ffffffffffffffffffffffffffffffffffffffff166c0100000000000000000000000002815260140182815260200193505050506040518091039020915033816000019073ffffffffffffffffffffffffffffffffffffffff16908173ffffffffffffffffffffffffffffffffffffffff168152505083816020019073ffffffffffffffffffffffffffffffffffffffff16908173ffffffffffffffffffffffffffffffffffffffff168152505034816040018181525050600081608001906002811115610f9257fe5b90816002811115610f9f57fe5b81525050828160a001818152505080600080846000191660001916815260200190815260200160002060008201518160000160006101000a81548173ffffffffffffffffffffffffffffffffffffffff021916908373ffffffffffffffffffffffffffffffffffffffff16021790555060208201518160010160006101000a81548173ffffffffffffffffffffffffffffffffffffffff021916908373ffffffffffffffffffffffffffffffffffffffff160217905550604082015181600201556060820151816003015560808201518160040160006101000a81548160ff0219169083600281111561108e57fe5b021790555060a0820151816005015560c0820151816006015560e082015181600701556101008201518160080155610120820151816009015590505081600160003373ffffffffffffffffffffffffffffffffffffffff1673ffffffffffffffffffffffffffffffffffffffff16815260200190815260200160002060008673ffffffffffffffffffffffffffffffffffffffff1673ffffffffffffffffffffffffffffffffffffffff1681526020019081526020016000208160001916905550806020015173ffffffffffffffffffffffffffffffffffffffff16816000015173ffffffffffffffffffffffffffffffffffffffff1683600019167fafe05a4a0a73916ca1f7f9ad6fdf4562b023275685d41d045bfa98432ff20da984604001516040518082815260200191505060405180910390a450505050565b60006111d56128a2565b82905060307f01000000000000000000000000000000000000000000000000000000000000000281600081518110151561120b57fe5b9060200101517f010000000000000000000000000000000000000000000000000000000000000090047f0100000000000000000000000000000000000000000000000000000000000000027effffffffffffffffffffffffffffffffffffffffffffffffffffffffffffff191610158015611324575060397f0100000000000000000000000000000000000000000000000000000000000000028160008151811015156112b457fe5b9060200101517f010000000000000000000000000000000000000000000000000000000000000090047f0100000000000000000000000000000000000000000000000000000000000000027effffffffffffffffffffffffffffffffffffffffffffffffffffffffffffff191611155b156113b057603081600081518110151561133a57fe5b9060200101517f010000000000000000000000000000000000000000000000000000000000000090047f0100000000000000000000000000000000000000000000000000000000000000027f01000000000000000000000000000000000000000000000000000000000000009004039150611765565b60417f0100000000000000000000000000000000000000000000000000000000000000028160008151811015156113e357fe5b9060200101517f010000000000000000000000000000000000000000000000000000000000000090047f0100000000000000000000000000000000000000000000000000000000000000027effffffffffffffffffffffffffffffffffffffffffffffffffffffffffffff1916101580156114fc575060467f01000000000000000000000000000000000000000000000000000000000000000281600081518110151561148c57fe5b9060200101517f010000000000000000000000000000000000000000000000000000000000000090047f0100000000000000000000000000000000000000000000000000000000000000027effffffffffffffffffffffffffffffffffffffffffffffffffffffffffffff191611155b1561158857603781600081518110151561151257fe5b9060200101517f010000000000000000000000000000000000000000000000000000000000000090047f0100000000000000000000000000000000000000000000000000000000000000027f01000000000000000000000000000000000000000000000000000000000000009004039150611765565b60617f0100000000000000000000000000000000000000000000000000000000000000028160008151811015156115bb57fe5b9060200101517f010000000000000000000000000000000000000000000000000000000000000090047f0100000000000000000000000000000000000000000000000000000000000000027effffffffffffffffffffffffffffffffffffffffffffffffffffffffffffff1916101580156116d4575060667f01000000000000000000000000000000000000000000000000000000000000000281600081518110151561166457fe5b9060200101517f010000000000000000000000000000000000000000000000000000000000000090047f0100000000000000000000000000000000000000000000000000000000000000027effffffffffffffffffffffffffffffffffffffffffffffffffffffffffffff191611155b156117605760578160008151811015156116ea57fe5b9060200101517f010000000000000000000000000000000000000000000000000000000000000090047f0100000000000000000000000000000000000000000000000000000000000000027f01000000000000000000000000000000000000000000000000000000000000009004039150611765565b600080fd5b50919050565b6117736128ca565b600080836000191660001916815260200190815260200160002061014060405190810160405290816000820160009054906101000a900473ffffffffffffffffffffffffffffffffffffffff1673ffffffffffffffffffffffffffffffffffffffff1673ffffffffffffffffffffffffffffffffffffffff1681526020016001820160009054906101000a900473ffffffffffffffffffffffffffffffffffffffff1673ffffffffffffffffffffffffffffffffffffffff1673ffffffffffffffffffffffffffffffffffffffff16815260200160028201548152602001600382015481526020016004820160009054906101000a900460ff16600281111561187857fe5b600281111561188357fe5b8152602001600582015481526020016006820154815260200160078201548152602001600882015481526020016009820154815250509050806000015173ffffffffffffffffffffffffffffffffffffffff163373ffffffffffffffffffffffffffffffffffffffff1614806119285750806020015173ffffffffffffffffffffffffffffffffffffffff163373ffffffffffffffffffffffffffffffffffffffff16145b151561193357600080fd5b6001600281111561194057fe5b8160800151600281111561195057fe5b14151561195c57600080fd5b8060e001514211151561196e57600080fd5b806000015173ffffffffffffffffffffffffffffffffffffffff166108fc8261010001519081150290604051600060405180830381858888f1935050505015156119b757600080fd5b806020015173ffffffffffffffffffffffffffffffffffffffff166108fc8261012001519081150290604051600060405180830381858888f193505050501515611a0057600080fd5b6000808360001916600019168152602001908152602001600020600080820160006101000a81549073ffffffffffffffffffffffffffffffffffffffff02191690556001820160006101000a81549073ffffffffffffffffffffffffffffffffffffffff0219169055600282016000905560038201600090556004820160006101000a81549060ff021916905560058201600090556006820160009055600782016000905560088201600090556009820160009055505060016000826000015173ffffffffffffffffffffffffffffffffffffffff1673ffffffffffffffffffffffffffffffffffffffff1681526020019081526020016000206000826020015173ffffffffffffffffffffffffffffffffffffffff1673ffffffffffffffffffffffffffffffffffffffff1681526020019081526020016000206000905581600019167f60c8851fb5a72061b2ddf28b0e4c661e6c2f2ba52b202fbb8a15e705f5269faa60405160405180910390a25050565b60006020528060005260406000206000915090508060000160009054906101000a900473ffffffffffffffffffffffffffffffffffffffff16908060010160009054906101000a900473ffffffffffffffffffffffffffffffffffffffff16908060020154908060030154908060040160009054906101000a900460ff1690806005015490806006015490806007015490806008015490806009015490508a565b600080600080600080600080600080611c2c6128ca565b6000808d6000191660001916815260200190815260200160002061014060405190810160405290816000820160009054906101000a900473ffffffffffffffffffffffffffffffffffffffff1673ffffffffffffffffffffffffffffffffffffffff1673ffffffffffffffffffffffffffffffffffffffff1681526020016001820160009054906101000a900473ffffffffffffffffffffffffffffffffffffffff1673ffffffffffffffffffffffffffffffffffffffff1673ffffffffffffffffffffffffffffffffffffffff16815260200160028201548152602001600382015481526020016004820160009054906101000a900460ff166002811115611d3157fe5b6002811115611d3c57fe5b8152602001600582015481526020016006820154815260200160078201548152602001600882015481526020016009820154815250509050806000015181602001518260400151836060015184608001516002811115611d9857fe5b8560a001518660c001518760e001518861010001518961012001519a509a509a509a509a509a509a509a509a509a50509193959799509193959799565b611ddd6128a2565b6020604051805910611dec5750595b9080825280601f01601f19166020018201604052509050816020820152919050565b6000806000836000191660001916815260200190815260200160002090508060010160009054906101000a900473ffffffffffffffffffffffffffffffffffffffff1673ffffffffffffffffffffffffffffffffffffffff163373ffffffffffffffffffffffffffffffffffffffff16148015611eb2575060006002811115611e9357fe5b8160040160009054906101000a900460ff166002811115611eb057fe5b145b1515611ebd57600080fd5b60003414151515611ecd57600080fd5b60008160030154141515611ee057600080fd5b3481600301819055508060010160009054906101000a900473ffffffffffffffffffffffffffffffffffffffff1673ffffffffffffffffffffffffffffffffffffffff168160000160009054906101000a900473ffffffffffffffffffffffffffffffffffffffff1673ffffffffffffffffffffffffffffffffffffffff1683600019167f7b285069ffcd2321527a5e4069cba2c8766e564c8df20bace16e3805e092c4df84600201548560030154604051808381526020018281526020019250505060405180910390a45050565b6000806000886000191660001916815260200190815260200160002090508060000160009054906101000a900473ffffffffffffffffffffffffffffffffffffffff1673ffffffffffffffffffffffffffffffffffffffff163373ffffffffffffffffffffffffffffffffffffffff16148061207a57508060010160009054906101000a900473ffffffffffffffffffffffffffffffffffffffff1673ffffffffffffffffffffffffffffffffffffffff163373ffffffffffffffffffffffffffffffffffffffff16145b151561208557600080fd5b60028081111561209157fe5b8160040160009054906101000a900460ff1660028111156120ae57fe5b141515156120bb57600080fd5b600115156120cd888888888888612495565b15151415156120db57600080fd5b8060060154861115156120ed57600080fd5b84816008018190555083816009018190555085816006018190555050505050505050565b6001602052816000526040600020602052806000526040600020600091509150505481565b6000806121416128a2565b8351915060008211151561215457600080fd5b6040805190810160405280601a81526020017f19457468657265756d205369676e6564204d6573736167653a0a0000000000008152509050806121968361278a565b856040518084805190602001908083835b6020831015156121cc57805182526020820191506020810190506020830392506121a7565b6001836020036101000a03801982511681845116808217855250505050505090500183805190602001908083835b60208310151561221f57805182526020820191506020810190506020830392506121fa565b6001836020036101000a03801982511681845116808217855250505050505090500182805190602001908083835b602083101515612272578051825260208201915060208101905060208303925061224d565b6001836020036101000a0380198251168184511680821785525050505050509050019350505050604051809103902092505050919050565b60006122b46128a2565b6000806000806122c26128a2565b60006001028960001916141515156122d957600080fd5b6040805190810160405280601c81526020017f19457468657265756d205369676e6564204d6573736167653a0a333200000000815250955085896040518083805190602001908083835b6020831015156123485780518252602082019150602081019050602083039250612323565b6001836020036101000a038019825116818451168082178552505050505050905001826000191660001916815260200192505050604051809103902094506084885114151561239a5760009650612489565b6123af6123aa8960026084610d1c565b610b99565b90506020810151935060408101519250606081015160001a9150601b8260ff1610156123dc57601b820191505b601b8260ff1610806123f15750601c8260ff16115b156123ff5760009650612489565b600185838686604051600081526020016040526000604051602001526040518085600019166000191681526020018460ff1660ff16815260200183600019166000191681526020018260001916600019168152602001945050505050602060405160208103908084039060008661646e5a03f1151561247d57600080fd5b50506020604051035196505b50505050505092915050565b600061249f6128ca565b6000806000808b6000191660001916815260200190815260200160002061014060405190810160405290816000820160009054906101000a900473ffffffffffffffffffffffffffffffffffffffff1673ffffffffffffffffffffffffffffffffffffffff1673ffffffffffffffffffffffffffffffffffffffff1681526020016001820160009054906101000a900473ffffffffffffffffffffffffffffffffffffffff1673ffffffffffffffffffffffffffffffffffffffff1673ffffffffffffffffffffffffffffffffffffffff16815260200160028201548152602001600382015481526020016004820160009054906101000a900460ff1660028111156125a757fe5b60028111156125b257fe5b8152602001600582015481526020016006820154815260200160078201548152602001600882015481526020016009820154815250509250826060015183604001510187890114151561260457600080fd5b6000600281111561261157fe5b8360800151600281111561262157fe5b148061264757506001600281111561263557fe5b8360800151600281111561264557fe5b145b151561265257600080fd5b89898989604051808560001916600019168152602001848152602001838152602001828152602001945050505050604051809103902091506001151561269d83888660000151610b31565b15151480156126be5750600115156126ba83878660200151610b31565b1515145b9050600115158115151415156126d357600080fd5b600193505050509695505050505050565b600080600088600019166000191681526020019081526020016000209050612710878787878787611faf565b60018160040160006101000a81548160ff0219169083600281111561273157fe5b021790555080600501544201816007018190555086600019167fe0bbcc1d891fbc2a1b015d9f307f90e4942a5d0bea4aebc06ec8c0a54d6acbc2876040518082815260200191505060405180910390a250505050505050565b6127926128b6565b60008061279d6128a2565b600080600094506000870193505b6000841415156127d1578480600101955050600a848115156127c957fe5b0493506127ab565b846040518059106127df5750595b9080825280601f01601f191660200182016040525092506001850391505b60008714151561289557600a8781151561281357fe5b069050600a8781151561282257fe5b049650806030017f01000000000000000000000000000000000000000000000000000000000000000283838060019003945081518110151561286057fe5b9060200101907effffffffffffffffffffffffffffffffffffffffffffffffffffffffffffff1916908160001a9053506127fd565b8295505050505050919050565b602060405190810160405280600081525090565b602060405190810160405280600081525090565b61014060405190810160405280600073ffffffffffffffffffffffffffffffffffffffff168152602001600073ffffffffffffffffffffffffffffffffffffffff16815260200160008152602001600081526020016000600281111561292c57fe5b8152602001600081526020016000815260200160008152602001600081526020016000815250905600a165627a7a72305820fc7ffa05d89204fae1e228a1cccbf4179694cdfad2dc1664a59f902e670aeb610029",
  "source": "pragma solidity ^0.4.18;\n\nimport \"./ECTools.sol\";\n\ncontract ChannelManager is ECTools {\n    event ChannelOpen(\n        bytes32 indexed channelId,\n        address indexed agentA,\n        address indexed agentB,\n        uint256 depositA\n    );\n    event ChannelJoin(\n        bytes32 indexed channelId,\n        address indexed agentA,\n        address indexed agentB,\n        uint256 depositA,\n        uint256 depositB\n    );\n    event ChannelChallenge(\n        bytes32 indexed channelId,\n        uint256 nonce\n    );\n    event ChannelClose(bytes32 indexed channelId);\n\n    enum ChannelStatus {\n        Open,\n        Challenge,\n        Closed\n    }\n\n    struct Channel {\n        address agentA;\n        address agentB;\n        uint depositA; // Deposit of agent A\n        uint depositB; // Deposit of agent B\n        ChannelStatus status; \n        uint challenge;\n        uint nonce;\n        uint closeTime;\n        uint balanceA; // for challenge\n        uint balanceB; // for challenge\n    }\n\n    mapping (bytes32 => Channel) public channels;\n    mapping (address => mapping(address => bytes32)) public activeIds;\n\n    function openChannel(address to, uint challenge) payable public {\n        require(challenge != 0);\n\n        bytes32 id = keccak256(msg.sender, to, now);\n        Channel memory channel;\n        channel.agentA = msg.sender;\n        channel.agentB = to;\n        channel.depositA = msg.value;\n        channel.status = ChannelStatus.Open;\n        channel.challenge = challenge;\n\n        // save to state\n        channels[id] = channel;\n        // Add it to the lookup table\n        activeIds[msg.sender][to] = id;\n        ChannelOpen(id, channel.agentA, channel.agentB, channel.depositA);\n    }\n\n    function joinChannel(bytes32 id) payable public {\n        Channel storage channel = channels[id];\n\n        require(msg.sender == channel.agentB && channel.status == ChannelStatus.Open);\n        require(msg.value != 0);\n        require(channel.depositB == 0); // no re-up in this version\n\n        channel.depositB = msg.value;\n\n        ChannelJoin(id, channel.agentA, channel.agentB, channel.depositA, channel.depositB);\n    }\n\n    function isValidStateUpdate(\n        bytes32 channelId,\n        uint256 nonce,\n        uint256 balanceA,\n        uint256 balanceB,\n        string sigA,\n        string sigB\n    ) \n        public\n        view\n        returns (bool)\n    {\n        // h = keccack(channelId, nonce, balanceA, balanceB)\n        Channel memory channel = channels[channelId];\n        require(balanceA + balanceB == channel.depositA + channel.depositB);\n        require(channel.status == ChannelStatus.Open || channel.status == ChannelStatus.Challenge);\n\n        // require state info to be signed by both participants\n        bytes32 fingerprint = keccak256(channelId, nonce, balanceA, balanceB);\n        bool signedByBoth = (\n            isSignedBy(fingerprint, sigA, channel.agentA) == true) && (isSignedBy(fingerprint, sigB, channel.agentB) == true\n        );\n        require(signedByBoth == true);\n        // return if true\n        return true;\n    }\n\n    function updateState(\n        bytes32 channelId,\n        uint256 nonce,\n        uint256 balanceA,\n        uint256 balanceB,\n        string sigA,\n        string sigB\n    ) \n        public\n    {\n        Channel storage channel = channels[channelId];\n\n        // sanity checks\n        require(msg.sender == channel.agentA || msg.sender == channel.agentB); // comes from agent\n        require(channel.status != ChannelStatus.Closed); // channel open or challenge status\n        require(isValidStateUpdate(channelId, nonce, balanceA, balanceB, sigA, sigB) == true); // valid signatures from both parties\n        require(nonce > channel.nonce); // need a higher sequence update\n\n        // set state variables\n        channel.balanceA = balanceA;\n        channel.balanceB = balanceB;\n        channel.nonce = nonce;\n    }\n\n    function startChallenge(\n        bytes32 channelId,\n        uint256 nonce,\n        uint256 balanceA,\n        uint256 balanceB,\n        string sigA,\n        string sigB\n    ) \n        public\n    {\n        Channel storage channel = channels[channelId];\n\n        // update to valid state\n        updateState(channelId, nonce, balanceA, balanceB, sigA, sigB);\n\n        // update channel status\n        channel.status = ChannelStatus.Challenge;\n        channel.closeTime = now + channel.challenge;\n        \n        ChannelChallenge(channelId, nonce);\n    }\n\n    function closeChannel(\n        bytes32 channelId\n    )\n        public\n    {\n        Channel memory channel = channels[channelId];\n\n        // request must come from agents\n        require(msg.sender == channel.agentA || msg.sender == channel.agentB);\n\n        // channel must be in challenge and challenge period over\n        require(channel.status == ChannelStatus.Challenge);\n        require(now > channel.closeTime);\n\n        // if true, then use final state to close channel\n        channel.agentA.transfer(channel.balanceA);\n        channel.agentB.transfer(channel.balanceB);\n\n        delete channels[channelId];\n        delete activeIds[channel.agentA][channel.agentB];\n\n        ChannelClose(channelId);\n    }\n\n    function getChannel(bytes32 id) public view returns(\n        address,\n        address,\n        uint,\n        uint,\n        uint,\n        uint,\n        uint,\n        uint,\n        uint,\n        uint\n    ) {\n        Channel memory channel = channels[id];\n        return (\n            channel.agentA,\n            channel.agentB,\n            channel.depositA,\n            channel.depositB,\n            uint(channel.status),\n            channel.challenge,\n            channel.nonce,\n            channel.closeTime,\n            channel.balanceA,\n            channel.balanceB\n        );\n    }\n}",
  "sourcePath": "/Users/rahul/Desktop/connext/ethcalate-2waypayment/contracts/ChannelManager.sol",
  "compiler": {
    "name": "solc",
    "version": "0.4.19+commit.c4cbbb05.Emscripten.clang"
  },
  "schemaVersion": "2.0.0",
  "updatedAt": "2018-03-29T03:32:43.976Z"
}